:020000040800F2
:1000000000000220F10E0008F1070008F9070008BF
:100010000108000809080008110800080000000095
:1000200000000000000000000000000019080008A7
:1000300027080008000000003508000843080008F1
:10004000410F0008410F0008410F0008410F000850
:10005000410F0008410F0008410F0008410F000840
:10006000410F0008410F0008410F0008410F000830
:10007000410F0008410F0008410F0008410F000820
:10008000410F0008410F0008410F00080000000068
:10009000000000000000000000000000410F000808
:1000A000410F0008410F0008410F0008410F0008F0
:1000B000410F0008410F0008410F0008410F0008E0
:1000C000410F0008410F0008410F0008410F0008D0
:1000D000410F0008410F0008410F00080000000018
:1000E000410F0008410F0008410F00080000000008
:1000F000000000000000000000000000410F0008A8
:1001000000000000410F0008410F0008410F0008E7
:1001100000000000000000000000000000000000DF
:10012000410F0008410F0008410F0008410F00086F
:10013000410F000800000000000000000000000067
:10014000000000000000000000000000410F000857
:10015000410F0008410F0008410F0008410F00083F
:10016000410F0008410F00080000000000000000DF
:10017000000000000000000000000000000000007F
:1001800000000000410F0008000000000000000017
:08019000410F0008410F0008B7
:1001980010B5054C237833B9044B13B10448AFF3B9
:1001A80000800123237010BD18000020000000000B
:1001B800481E000808B5034B1BB103490348AFF3B9
:1001C800008008BD000000001C000020481E000838
:1001D80053B94AB9002908BF00281CBF4FF0FF31A6
:1001E8004FF0FF3000F06AB9ADF1080C6DE904CEAC
:1001F80000F006F8DDF804E0DDE9022304B07047FA
:100208002DE9F047089D0C46002B4ED194468C45AD
:100218008646B2FA82F262D94AB1C2F1200391400D
:1002280020FA03F30CFA02FC194300FA02FE4FEA23
:100238001C471FFA8CF6B1FBF7F44FEA1E4307FB85
:10024800141143EA014304FB06F199420AD91CEB55
:10025800030304F1FF3080F01281994240F20F81CC
:10026800023C6344591A1FFA8EF3B1FBF7F007FBFF
:10027800101143EA014300FB06F69E420AD91CEB23
:10028800030300F1FF3180F0FC809E4240F2F980C8
:10029800634402389B1B40EA044000211DB1D3404F
:1002A8000022C5E90032BDE8F0878B4205D90DB1BF
:1002B800C5E9000100210846F5E7B3FA83F10029F2
:1002C80046D1A34202D39042C0F0F080861A64EB74
:1002D80003030120002DE6D0C5E90063E3E7002A07
:1002E80040F09080A1EB0C044FEA1C481FFA8CF7F1
:1002F8000121B4FBF8F64FEA1E4308FB164443EA13
:10030800044307FB06F0984208D91CEB030306F1E7
:10031800FF3402D2984200F2CD8026461C1A1FFAFA
:100328008EF3B4FBF8F008FB104443EA044300FBE7
:1003380007F79F4208D91CEB030300F1FF3402D2F0
:100348009F4200F2B0802046DB1B40EA0640A5E74A
:10035800C1F120068B4022FA06F71F4320FA06FC5B
:1003680004FA01F343EA0C03F44000FA01F8380CEC
:100378004FEA1349B4FBF0FE1FFA87FC00FB1E444A
:1003880049EA04440EFB0CF9A14502FA01F20AD924
:100398003C190EF1FF3A80F08480A14540F281803B
:1003A800AEF1020E3C44A4EB09041FFA83F9B4FB36
:1003B800F0F300FB134449EA044403FB0CFCA44596
:1003C80007D93C1903F1FF3067D2A44565D9023B30
:1003D8003C4443EA0E40A0FB0293A4EB0C049C426D
:1003E800CE469C4651D34ED055B1B8EB0E0364EBC4
:1003F8000C0404FA06F6CB401E43CC40C5E9006461
:10040800002150E7C2F1200320FA03F10CFA02FCA4
:1004180024FA03F394400C434FEA1C4800FA02FE06
:100428001FFA8CF7B3FBF8F008FB1031230C43EAF2
:10043800014300FB07F1994208D91CEB030300F1C3
:10044800FF362CD299422AD9023863445B1AA4B2E7
:10045800B3FBF8F108FB113344EA034401FB07F34B
:10046800A34208D91CEB040401F1FF3613D2A342BE
:1004780011D902396444E41A41EA004139E70446D3
:10048800F0E6084606E7C845AED2B9EB020E63EBC4
:10049800070C0138A8E73146EDE7034699E73046EF
:1004A800D4E7D6467FE7634402384DE7064623463D
:1004B80008460FE7023E634430E700BF704700BFBD
:1004C80080B500AF00F06EFA00BF80BD80B483B085
:1004D80000AF3B4683E80300064B1A463B4693E8C9
:1004E800030082E80300012318460C37BD465DF877
:1004F800047B70473400002080B582B000AF78607C
:100508007B68002B01D1022310E00A4B1B68094AC3
:1005180092881146184601F011F803461A46054B11
:100528009A71044B9A797B681A7001231846083728
:10053800BD4680BD3400002080B500AF00F064FDEA
:100548000346184680BD000080B582B000AF002386
:10055800FB800CE0FB885B00094A13441B880022DF
:100568001946084801F002F8FB880133FB80FB8834
:10057800022BEFD9002318460837BD4680BD00BFBF
:10058800000000200004024080B582B000AF03469E
:10059800FB71FB795B00064A13441B88012219464C
:1005A800044800F0E3FF022318460837BD4680BD23
:1005B800000000200004024080B582B000AF03466E
:1005C800FB71FB795B00064A13441B88002219461D
:1005D800044800F0CBFF042318460837BD4680BD09
:1005E800000000200004024080B500AF00F0A6FC27
:1005F80000F006F800F06CF8FFF762FF00BFFDE7B7
:1006080080B594B000AF07F12003302200211846CE
:1006180001F0EAFB07F10C0300221A605A609A60A5
:10062800DA601A610023BB60274B1B6C264A43F033
:1006380080531364244B1B6C03F08053BB60BB686E
:1006480000237B60214B1B68204A43F4404313601E
:100658001E4B1B6803F440437B607B6802233B62AC
:100668000123FB6210233B630223BB630023FB636C
:1006780008233B6464237B640223BB640423FB6478
:1006880007F12003184600F08BFF0346002B01D02A
:1006980000F07CF80F23FB6002233B6100237B61A1
:1006A8004FF48053BB610023FB6107F10C03032166
:1006B800184601F0EDF90346002B01D000F066F86A
:1006C80000BF5037BD4680BD003802400070004072
:1006D80080B588B000AF07F10C0300221A605A6099
:1006E8009A60DA601A610023BB60254B1B6B244AB1
:1006F80043F080031363224B1B6B03F08003BB6042
:10070800BB6800237B601E4B1B6B1D4A43F0010333
:1007180013631B4B1B6B03F001037B607B68002397
:100728003B60174B1B6B164A43F002031363144BD1
:100738001B6B03F002033B603B680122A8211148B0
:1007480000F014FF0123FB6000233B6102237B615F
:1007580007F10C0319460C4800F06CFDA823FB6058
:1007680001233B6100237B610023BB6107F10C037C
:100778001946044800F05EFD00BF2037BD4680BD25
:1007880000380240000402400000024080B400AF7C
:1007980072B600BF00BFFDE780B483B000AF00238E
:1007A8007B60104B5B6C0F4A43F4804353640D4BE2
:1007B8005B6C03F480437B607B6800233B60094BE0
:1007C8001B6C084A43F080531364064B1B6C03F000
:1007D80080533B603B6800BF0C37BD465DF8047B27
:1007E800704700BF0038024080B400AF00BFFDE78B
:1007F80080B400AF00BFFDE780B400AF00BFFDE7E5
:1008080080B400AF00BFFDE780B400AF00BFFDE7D4
:1008180080B400AF00BFBD465DF8047B704780B46C
:1008280000AF00BFBD465DF8047B704780B400AFE1
:1008380000BFBD465DF8047B704780B500AF00F08F
:10084800CFFB00BF80BD000080B400AF064BD3F8DB
:100858008830054A43F47003C2F8883000BFBD46AB
:100868005DF8047B704700BF00ED00E080B582B002
:1008780000AF0123FB7100F02DF80346FB71FB79F3
:10088800012B01D0022300E0012318460837BD469A
:1008980080BD80B400AF01231846BD465DF8047BD7
:1008A800704780B400AF02231846BD465DF8047B4C
:1008B800704780B400AF03231846BD465DF8047B3B
:1008C800704780B400AF04231846BD465DF8047B2A
:1008D8007047000080B584B000AF0C4B7B600123EB
:1008E8003B810023BB720123FB733B1D93E803008C
:1008F800FFF7ECFD0346FB73FB7B012B01D00223C2
:1009080000E0012318461037BD4680BD00000240B4
:1009180080B500AFFFF718FE00BF80BD80B582B07C
:1009280000AF0023FB7106E0FB791846FFF744FE91
:10093800FB790133FB71FB79022BF5D900BF00BFAE
:100948000837BD4680BD80B582B000AF0346FB7155
:10095800FB79022B14D0022B19DC002B02D0012BBF
:1009680007D014E00120FFF727FE0220FFF724FE3E
:1009780010E00020FFF720FE0220FFF71DFE09E02F
:100988000020FFF719FE0120FFF716FE02E0FFF72F
:10099800C5FF00BFFB791846FFF7F6FD00BF083713
:1009A800BD4680BD80B500AFFFF7CEFD00F088F8EA
:1009B80000F0A0F800F002F800BFF9E780B500AF3A
:1009C8003D4B1B78032B54D801A252F823F000BFEB
:1009D800E9090008030A00082B0A0008530A00085E
:1009E800364B1B78012B03D1334B01221A7003E0DD
:1009F800314B00221A7000BF3CE0304B1B78022BB1
:100A080002D0032B04D007E02B4B02221A7007E018
:100A1800294B00221A7003E0274B01221A7000BFED
:100A280028E0264B1B78022B02D0032B04D007E0CA
:100A3800214B03221A7007E01F4B00221A7003E0B3
:100A48001D4B02221A7000BF14E01C4B1B78022BAE
:100A580002D0032B04D007E0174B01221A7007E0DD
:100A6800154B00221A7003E0134B03221A7000BFC3
:100A780000E000BF104B1B78032B1AD801A252F8D4
:100A880023F000BF9D0A0008A30A0008AB0A00086B
:100A9800B30A0008FFF742FF0BE00020FFF753FFFF
:100AA80007E00120FFF74FFF03E00220FFF74BFFAD
:100AB80000BF00BF80BD00BF3D0000203C000020FB
:100AC80080B582B000AF4FF47A7000F0A9FA012324
:100AD800FB71FFF7CBFE0346FB71FFF719FFFB79AC
:100AE800012B01D0002300E0012318460837BD463A
:100AF80080BD000080B584B000AFB14B1B780C2BD3
:100B080000F2D18101A252F823F000BF490B00087E
:100B1800870B0008D70B00083B0C0008BB0C00082B
:100B2800130D0008750D0008A70C0008890D0008B2
:100B3800F50D0008370E00088D0E0008A10E0008FC
:100B4800A04B00221A7007F10F031846FFF7D4FCD8
:100B580003461A469C4B1A709B4B1B78012B01D0FD
:100B68000023B4E1FB7B012B40F09F81944B0122D1
:100B78001A70FFF7E1FC0346944A1360A6E1FFF7F9
:100B8800DBFC0246914B1B68D31A312B40F28F8154
:100B980007F10E031846FFF7AFFC03461A468A4BC7
:100BA8001A70894B1B78012B01D000238FE1BB7B86
:100BB800002B03D1824B00221A7078E1804B02226D
:100BC8001A70FFF7B9FC0346804A13607EE107F10B
:100BD8000D031846FFF790FC03461A467A4B1A7025
:100BE800794B1B78012B01D0002370E17B7B002B14
:100BF80011D1FFF7A1FC0246744B1B68D31AB3F559
:100C0800FA7F08D26E4B03221A70FFF795FC034651
:100C18006E4A13605AE1FFF78FFC02466B4B1B6864
:100C2800D31AB3F5FA7FC0F04481654B08221A70D5
:100C38003FE107F10C031846FFF75EFC03461A462E
:100C4800614B1A70604B1B78012B01D000233EE1E9
:100C58003B7B002B0CD1FFF76FFC02465B4B1B68FC
:100C6800D31AB3F5967F03D3554B07221A702DE19B
:100C78003B7B012B40F01F81FFF75EFC0246534B84
:100C88001B68D31AB3F5967F80F015814C4B04226C
:100C98001A70FFF751FC03464C4A13600BE1FFF74B
:100CA800F8FD03461A46474B1A70454B00221A7046
:100CB8000CE1FFF741FC0246444B1B68D31A312B69
:100CC80040F2FB8007F10B031846FFF715FC0346BB
:100CD8001A463D4B1A703C4B1B78012B01D0002360
:100CE800F5E0FB7A002B03D1354B07221A70E4E0BC
:100CF800FB7A012B40F0E180314B05221A70FFF797
:100D08001BFC0346314A1360D7E007F10A03184673
:100D1800FFF7F2FB03461A462B4B1A702A4B1B7837
:100D2800012B01D00023D2E0BB7A002B0CD1FFF7B6
:100D380003FC0246254B1B68D31AB3F5FA7F03D28E
:100D48001F4B06221A70C1E0BB7A012B40F0B78016
:100D5800FFF7F2FB02461D4B1B68D31AB3F5FA7F67
:100D6800C0F0AD80164B0C221A70A8E0FFF799FD71
:100D780003461A46134B1A70114B00221A70A5E04D
:100D880007F109031846FFF7B7FB03461A460E4B4F
:100D98001A700D4B1B78012B01D0002397E07B7A4A
:100DA800002B15D1FFF7C8FB0246084B1B68D31A66
:100DB80040F6B83293420BD8014B0C221A7085E0EA
:100DC8003E0000203C0000200C00002040000020D5
:100DD800FFF7B2FB0246404B1B68D31A40F6B83205
:100DE80093426ED93D4B09221A706AE0FFF761FD04
:100DF80003461A463A4B1A7007F108031846FFF7DC
:100E08007BFB03461A46374B1A70364B1B78012B6F
:100E180001D000235BE03B7A002B54D12F4B0A22F0
:100E28001A70FFF789FB03462B4A13604EE0FB1D3F
:100E38001846FFF761FB03461A462A4B1A70294BDE
:100E48001B78012B01D0002341E0FB79012B0CD149
:100E5800FFF772FB0246204B1B68D31AB3F5967F47
:100E680003D81E4B09221A7030E0FFF765FB0246D3
:100E7800194B1B68D31AB3F5967F26D9174B0B224B
:100E88001A7022E0FFF71DFD03461A46144B1A702C
:100E9800124B00221A7019E0114B05221A700F4BE1
:100EA80000221A7012E000BF10E000BF0EE000BF81
:100EB8000CE000BF0AE000BF08E000BF06E000BF8A
:100EC80004E000BF02E000BF00E000BF01231846B5
:100ED8001037BD4680BD00BF400000203E00002006
:100EE8003C0000200C000020DFF834D0FFF7ACFCF9
:100EF8000C480D490D4A002302E0D458C45004336D
:100F0800C4188C42F9D30A4A0A4C002301E0136042
:100F18000432A242FBD300F06FFFFFF765FB704776
:100F2800000002200000002018000020801E000899
:100F38001800002048000020FEE7000080B500AF40
:100F48000E4B1B680D4A43F4007313600B4B1B6870
:100F58000A4A43F480631360084B1B68074A43F44A
:100F680080731360032000F031F90F2000F008F8B7
:100F7800FFF712FC0023184680BD00BF003C02406A
:100F880080B582B000AF7860124B1A68124B1B789C
:100F980019464FF47A73B3FBF1F3B2FBF3F3184637
:100FA80000F03BF90346002B01D001230EE07B68DB
:100FB8000F2B0AD8002279684FF0FF3000F011F9A2
:100FC800064A7B681360002300E0012318460837AF
:100FD800BD4680BD0800002014000020100000203D
:100FE80080B400AF064B1B781A46064B1B681344A7
:100FF800044A136000BFBD465DF8047B704700BF1C
:10100800140000204400002080B400AF034B1B688C
:101018001846BD465DF8047B704700BF44000020B9
:1010280080B584B000AF7860FFF7EEFFB8607B68EA
:10103800FB60FB68B3F1FF3F05D00A4B1B781A46EB
:10104800FB681344FB6000BFFFF7DEFF0246BB6886
:10105800D31AFA689A42F7D800BF00BF1037BD46C6
:1010680080BD00BF1400002080B485B000AF786058
:101078007B6803F00703FB600C4BDB68BB60BA6856
:101088004FF6FF031340BB60FB681A02BB681343AB
:1010980043F0BF6343F40033BB60044ABB68D360CA
:1010A80000BF1437BD465DF8047B704700ED00E0D3
:1010B80080B400AF044BDB681B0A03F00703184633
:1010C800BD465DF8047B704700ED00E080B483B056
:1010D80000AF03463960FB7197F90730002B0ADB34
:1010E8003B68DAB20C4997F907301201D2B20B44C7
:1010F80083F800230AE03B68DAB20849FB7903F079
:101108000F03043B1201D2B20B441A7600BF0C370E
:10111800BD465DF8047B704700E100E000ED00E0AB
:1011280080B489B000AFF860B9607A60FB6803F0FA
:101138000703FB61FB69C3F10703042B28BF0423E2
:10114800BB61FB690433062B02D9FB69033B00E052
:1011580000237B614FF0FF32BB6902FA03F3DA43E5
:10116800BB681A407B699A404FF0FF317B6901FAEE
:1011780003F3D9437B680B40134318462437BD4615
:101188005DF8047B7047000080B582B000AF7860DE
:101198007B68013BB3F1807F01D301230FE00A4A4A
:1011A8007B68013B53600F214FF0FF30FFF78EFF44
:1011B800054B00229A60044B07221A600023184648
:1011C8000837BD4680BD00BF10E000E080B582B0A2
:1011D80000AF78607868FFF747FF00BF0837BD4663
:1011E80080BD80B586B000AF0346B9607A60FB73F6
:1011F80000237B61FFF75CFF78617A68B9687869DA
:10120800FFF78EFF024697F90F3011461846FFF791
:101218005DFF00BF1837BD4680BD80B582B000AF06
:1012280078607868FFF7B0FF034618460837BD4670
:1012380080BD000080B489B000AF786039600023B9
:101248007B6100233B610023BB610023FB6159E103
:101258000122FB6902FA03F37B613B681B687A6928
:1012680013403B613A697B699A4240F048813B6888
:101278005B6803F00303012B05D03B685B6803F050
:101288000303022B30D17B689B68BB61FB695B0061
:10129800032202FA03F3DB43BA691340BB613B68DC
:1012A800DA68FB695B0002FA03F3BA691343BB61AE
:1012B8007B68BA699A607B685B68BB610122FB69DD
:1012C80002FA03F3DB43BA691340BB613B685B680E
:1012D8001B0903F00102FB6902FA03F3BA6913431D
:1012E800BB617B68BA695A603B685B6803F00303BB
:1012F800032B17D07B68DB68BB61FB695B000322AB
:1013080002FA03F3DB43BA691340BB613B689A688E
:10131800FB695B0002FA03F3BA691343BB617B689C
:10132800BA69DA603B685B6803F00303022B23D1D8
:10133800FB69DA087B68083253F82230BB61FB6925
:1013480003F007039B000F2202FA03F3DB43BA6999
:101358001340BB613B681A69FB6903F007039B00F4
:1013680002FA03F3BA691343BB61FB69DA087B68C5
:101378000832B96943F822107B681B68BB61FB69B6
:101388005B00032202FA03F3DB43BA691340BB6133
:101398003B685B6803F00302FB695B0002FA03F336
:1013A800BA691343BB617B68BA691A603B685B68BA
:1013B80003F44033002B00F0A2800023FB60574B5E
:1013C8005B6C564A43F480435364544B5B6C03F4A0
:1013D8008043FB60FB68524AFB699B08023352F862
:1013E8002330BB61FB6903F003039B000F2202FA61
:1013F80003F3DB43BA691340BB617B68494A9342F4
:1014080019D07B68484A934213D07B68474A934275
:101418000DD07B68464A934207D07B68454A934281
:1014280001D1042308E0072306E0032304E0022394
:1014380002E0012300E00023FA6902F003029200AF
:101448009340BA691343BB613549FB699B08023372
:10145800BA6941F82320384B9B68BB613B69DB4381
:10146800BA691340BB613B685B6803F48013002BC7
:1014780003D0BA693B691343BB612F4ABB699360C8
:101488002D4BDB68BB613B69DB43BA691340BB6129
:101498003B685B6803F40013002B03D0BA693B690F
:1014A8001343BB61244ABB69D360234B5B68BB61B0
:1014B8003B69DB43BA691340BB613B685B6803F473
:1014C8000033002B03D0BA693B691343BB611A4A46
:1014D800BB695360184B1B68BB613B69DB43BA6946
:1014E8001340BB613B685B6803F48033002B03D077
:1014F800BA693B691343BB610F4ABB691360FB6957
:101508000133FB61FB690F2B7FF6A2AE00BF00BF62
:101518002437BD465DF8047B704700BF00380240A1
:101528000038014000000240000402400008024068
:10153800000C024000100240003C014080B485B01D
:1015480000AF78600B467B807B681A697B88134004
:10155800002B02D00123FB7301E00023FB73FB7B0C
:1015680018461437BD465DF8047B704780B483B0D5
:1015780000AF78600B467B8013467B707B78002B2E
:1015880003D07A887B689A6103E07B881A047B68B9
:101598009A6100BF0C37BD465DF8047B70470000B8
:1015A80080B586B000AF78607B68002B01D101233D
:1015B80067E27B681B6803F00103002B75D0884B3A
:1015C8009B6803F00C03042B0CD0854B9B6803F03D
:1015D8000C03082B12D1824B5B6803F48003B3F52C
:1015E800800F0BD17E4B1B6803F40033002B5BD0BC
:1015F8007B685B68002B57D1012342E27B685B68FC
:10160800B3F5803F06D1764B1B68754A43F48033A7
:1016180013601DE07B685B68B3F5A02F0CD1704B9D
:101628001B686F4A43F4802313606D4B1B686C4A38
:1016380043F4803313600BE0694B1B68684A23F45A
:1016480080331360664B1B68654A23F4802313605C
:101658007B685B68002B13D0FFF7D6FC386108E085
:10166800FFF7D2FC02463B69D31A642B01D9032346
:1016780007E25B4B1B6803F40033002BF0D014E047
:10168800FFF7C2FC386108E0FFF7BEFC02463B6981
:10169800D31A642B01D90323F3E1514B1B6803F4DC
:1016A8000033002BF0D100E000BF7B681B6803F01B
:1016B8000203002B63D04A4B9B6803F00C03002BFA
:1016C8000BD0474B9B6803F00C03082B1CD1444BF1
:1016D8005B6803F48003002B16D1414B1B6803F0B1
:1016E8000203002B05D07B68DB68012B01D00123A6
:1016F800C7E13B4B1B6823F0F8027B681B69DB00E2
:10170800374913430B603AE07B68DB68002B20D035
:10171800344B01221A60FFF777FC386108E0FFF7C5
:1017280073FC02463B69D31A022B01D90323A8E1B3
:101738002B4B1B6803F00203002BF0D0284B1B68CF
:1017480023F0F8027B681B69DB00254913430B6013
:1017580015E0244B00221A60FFF756FC386108E0B8
:10176800FFF752FC02463B69D31A022B01D9032327
:1017780087E11B4B1B6803F00203002BF0D17B6849
:101788001B6803F00803002B36D07B685B69002BCD
:1017980016D0154B01221A60FFF736FC386108E0B5
:1017A800FFF732FC02463B69D31A022B01D9032307
:1017B80067E10B4B5B6F03F00203002BF0D01BE0DB
:1017C800094B00221A60FFF71FFC38610EE0FFF793
:1017D8001BFC02463B69D31A022B07D9032350E1AD
:1017E8000038024000004742800E4742884B5B6F3A
:1017F80003F00203002BEAD17B681B6803F00403A3
:10180800002B00F097800023FB75814B1B6C03F0C5
:101818008053002B0FD10023BB607D4B1B6C7C4A8F
:1018280043F0805313647A4B1B6C03F08053BB6006
:10183800BB680123FB75774B1B6803F48073002B8F
:1018480018D1744B1B68734A43F480731360FFF715
:10185800DBFB386108E0FFF7D7FB02463B69D31A88
:10186800022B01D903230CE16A4B1B6803F4807334
:10187800002BF0D07B689B68012B06D1644B1B6F53
:10188800634A43F0010313671CE07B689B68052BE0
:101898000CD15F4B1B6F5E4A43F0040313675C4B2C
:1018A8001B6F5B4A43F0010313670BE0584B1B6F38
:1018B800574A23F001031367554B1B6F544A23F013
:1018C800040313677B689B68002B15D0FFF79CFB0C
:1018D80038610AE0FFF798FB02463B69D31A41F2E8
:1018E8008832934201D90323CBE0494B1B6F03F0A5
:1018F8000203002BEED014E0FFF786FB38610AE004
:10190800FFF782FB02463B69D31A41F288329342C1
:1019180001D90323B5E03E4B1B6F03F00203002BF4
:10192800EED1FB7D012B05D1394B1B6C384A23F0D6
:10193800805313647B689B69002B00F0A180344BB3
:101948009B6803F00C03082B5CD07B689B69022B17
:1019580041D1314B00221A60FFF756FB386108E08D
:10196800FFF752FB02463B69D31A022B01D9032326
:1019780087E0274B1B6803F00073002BF0D17B68CE
:10198800DA697B681B6A1A437B685B6A9B011A43A6
:101998007B689B6A5B08013B1B041A437B68DB6A14
:1019A8001B061B4913434B601B4B01221A60FFF7B0
:1019B8002BFB386108E0FFF727FB02463B69D31A87
:1019C800022B01D903235CE0114B1B6803F0007361
:1019D800002BF0D054E0104B00221A60FFF714FBE4
:1019E800386108E0FFF710FB02463B69D31A022B67
:1019F80001D9032345E0064B1B6803F00073002B55
:101A0800F0D13DE07B689B69012B07D1012338E0C9
:101A18000038024000700040600047421B4B5B6882
:101A2800FB607B689B69012B28D0FB6803F480026C
:101A38007B68DB699A4221D1FB6803F03F027B682F
:101A48001B6A9A421AD1FA6847F6C07313407A683B
:101A5800526A9201934211D1FB6803F440327B68C9
:101A68009B6A5B08013B1B049A4207D1FB6803F0A1
:101A780070627B68DB6A1B069A4201D0012300E092
:101A8800002318461837BD4680BD00BF0038024005
:101A980080B584B000AF786039607B68002B01D1D5
:101AA8000123CCE0684B1B6803F007033A689A42AD
:101AB8000CD9654B3A68D2B21A70634B1B6803F0B5
:101AC80007033A689A4201D00123B8E07B681B6893
:101AD80003F00203002B20D07B681B6803F004038B
:101AE800002B05D0594B9B68584A43F4E053936048
:101AF8007B681B6803F00803002B05D0534B9B68D9
:101B0800524A43F460439360504B9B6823F0F002C1
:101B18007B689B684D4913438B607B681B6803F0A7
:101B28000103002B44D07B685B68012B07D1474B2E
:101B38001B6803F40033002B19D101237FE07B6875
:101B48005B68022B03D07B685B68032B07D13F4B94
:101B58001B6803F00073002B09D101236FE03B4B96
:101B68001B6803F00203002B01D1012367E0374B08
:101B78009B6823F003027B685B68344913438B60DE
:101B8800FFF742FAF8600AE0FFF73EFA0246FB6800
:101B9800D31A41F28832934201D903234FE02B4BE9
:101BA8009B6803F00C027B685B689B009A42EBD150
:101BB800254B1B6803F007033A689A420CD2224B64
:101BC8003A68D2B21A70204B1B6803F007033A68D0
:101BD8009A4201D0012332E07B681B6803F00403BA
:101BE800002B08D0194B9B6823F4E0527B68DB6814
:101BF800164913438B607B681B6803F00803002BAE
:101C080009D0124B9B6823F460427B681B69DB0098
:101C18000E4913438B6000F021F802460B4B9B687A
:101C28001B0903F00F030A49CB5C22FA03F3094AA4
:101C38001360094B1B681846FFF7A2F900231846E2
:101C48001037BD4680BD00BF003C0240003802404E
:101C5800601E000808000020100000202DE9B04F89
:101C680090B000AF00237B630023FB6300233B633A
:101C78000023BB63594B9B6803F00C03082B0DD062
:101C8800082B00F2A180002B02D0042B03D09BE08C
:101C9800534BBB639BE0534BBB6398E04F4B5B6874
:101CA80003F03F037B634D4B5B6803F48003002B19
:101CB80028D04A4B5B689B0900223B627A623B6AE8
:101CC800C3F308000021474B03FB01F2002300FB8C
:101CD80003F31344434AA0FB0212FA620A46BA62AB
:101CE800FA6A1344FB627B6B0022BB61FA61D7E995
:101CF8000623D7E90A01FEF76BFA02460B4613469C
:101D0800FB6353E0354B5B689B0900223B617A61BA
:101D18003B69C3F3080A4FF0000B52465B464FF08D
:101D280000004FF00001590141EAD261500102461A
:101D38000B46B2EB0A0863EB0B094FF000024FF0B9
:101D480000034FEA891343EA98634FEA8812B2EB1B
:101D5800080463EB09054FF000024FF00003EB00A5
:101D680043EA5473E20014461D4614EB0A033B6031
:101D780045EB0B037B604FF000024FF00003D7E9FF
:101D8800004529468B02214643EA915321468A029F
:101D9800104619467B6B0022BB60FA60D7E9022324
:101DA800FEF716FA02460B461346FB630B4B5B68BD
:101DB8001B0C03F0030301335B003B63FA6B3B6BC3
:101DC800B2FBF3F3BB6302E0054BBB6300BFBB6B25
:101DD80018464037BD46BDE8B08F00BF0038024006
:101DE8000024F40040787D0102440346934200D168
:101DF800704703F8011BF9E770B50D4D0D4C641BD6
:101E0800A4100026A64209D10B4D0C4C00F018F87E
:101E1800641BA4100026A64205D170BD55F8043BEA
:101E280098470136EEE755F8043B98470136F2E744
:101E3800781E0008781E0008781E00087C1E00081E
:101E4800F8B500BFF8BC08BC9E467047F8B500BF9F
:081E5800F8BC08BC9E4670476F
:101E6000000000000000000001020304060708094A
:081E700098E3FF7F0100000070
:041E7800BD010008A0
:041E7C0099010008C0
:101E800008002000800000000024F4000100000091
:081E9000100000000100000039
:0400000508000EF1F0
:00000001FF
